S00F0000776561746865722E7372656325
S11300000C9434000C9451000C9451000C94510045
S11300100C9451000C9451000C9451000C94510018
S11300200C9451000C9451000C9451000C94510008
S11300300C9451000C9451000C9451000C945100F8
S11300400C9451000C9451000C9451000C945100E8
S11300500C9451000C9451000C9451000C945100D8
S11300600C9451000C94510011241FBECFEFD8E022
S1130070DEBFCDBF11E0A0E0B1E0E6E9F1E102C0EE
S113008005900D92A835B107D9F721E0A8E5B1E0B4
S113009001C01D92A237B207E1F70E94D9040C9463
S11300A0C9080C940000CF93C82F8A3019F48DE04E
S11300B00E9453008091C00085FFFCCFC093C6000E
S11300C090E080E0CF91089590E080E0089522E0F0
S11300D02093C000B0E0A0E09C01AD0183E0220FBA
S11300E0331F441F551F8A95D1F760E074E284EFF3
S11300F090E00E945E0521502093C40088E1809323
S1130100C100ECE6F1E080E091E091838083938389
S11301108283089588E48093B8001092B90084E043
S11301208093BC0080E00895FC018081880FFB016E
S1130130808380E008951092BC0094EA9093BC0000
S11301409091BC0097FFFCCF9091B900987F9830B4
S113015091F48093BB0084E88093BC008091BC0040
S113016087FFFCCF8091B900887F883131F08034DB
S113017021F082E0089581E0089580E0089580935D
S1130180BB0084E88093BC008091BC0087FFFCCF57
S11301909091B900987F81E0983209F480E0089545
S11301A084EC8093BC008091BC0087FFFCCF8091DD
S11301B0BB00089584E88093BC008091BC0087FF55
S11301C0FCCF8091BB000895DF92EF92FF920F93D2
S11301D01F93CF93DF93D62E072F7A010E949B00A3
S11301E0182F882351F011E0812FDF91CF911F91B7
S11301F00F91FF90EF90DF900895CD2DD02FEC0E4E
S1130200FD1ECE15DF0521F484E98093BC00ECCFFC
S113021089910E94BF008823A1F3E5CFCF92DF929A
S1130220FF920F931F93CF93DF93EB018A018160B9
S11302300E949B00F82E6E0101501109882341F0A1
S1130240FF24F39413C00E94D000F60181936F0140
S1130250C6018C1B9D0B80179107A8F3C00FD11FFB
S11302600E94DA00888384E98093BC008F2DDF919B
S1130270CF911F910F91FF90DF90CF900895DF925F
S1130280EF92FF920F931F93CF93DF93C62FD42E39
S1130290052F7901880F0E949B00182F882351F0A5
S11302A011E0812FDF91CF911F910F91FF90EF907B
S11302B0DF9008958C2F0E94BF00CD2DD02FEC0E1F
S11302C0FD1ECE15DF0521F484E98093BC00E9CF3F
S11302D089910E94BF008823A1F3E2CFCF93DF93DB
S11302E0D62FC42F880F0E949B00882321F081E021
S11302F0DF91CF9108958D2F0E94BF008C2F0E9413
S1130300BF008111F4CF94E99093BC00F1CFCF9258
S1130310DF92FF920F931F93CF93DF93D62EEA01C0
S11303208901F82EFF0C8F2D0E949B00882359F021
S1130330FF24F3948F2DDF91CF911F910F91FF90A4
S1130340DF90CF9008958D2D0E94BF008F2D816086
S11303500E949B00F82E6E01015011098111E8CF13
S1130360C6018C1B9D0B8017910748F0C00FD11F4D
S11303700E94DA00888384E98093BC00DBCF0E946A
S1130380D000F60181936F01EBCF0F931F93CF93AE
S1130390DF93D62F8A01C82FCC0F8C2F0E949B008D
S11303A0882339F0C1E08C2FDF91CF911F910F91F9
S11303B008958D2F0E94BF008C2F81600E949B00A6
S11303C0C82F8111EFCF0E94DA00F801808384E9FD
S11303D08093BC00E8CF0F931F93CF93DF93062F36
S11303E0EA01182F110F812F0E949B00882339F0F6
S11303F011E0812FDF91CF911F910F910895802FEC
S11304000E94BF00812F81600E949B00182F8111E0
S1130410EFCF0E94D000188289830E94DA002881DD
S11304203981282B3983288384E98093BC00E1CF68
S113043084E98093BC0008951F93CF93DF9300D089
S1130440CDB7DEB7182FAE014F5F5F4F6AEA0E9447
S1130450EB0189819A8190936B0180936A01AE01CB
S11304604F5F5F4F6CEA812F0E94EB0189819A8173
S11304709093690180936801AE014F5F5F4F6EEA0C
S1130480812F0E94EB0189819A8190936701809367
S1130490660144E651E060EB812F0E94EB0142E6E5
S11304A051E062EB812F0E94EB0140E651E064EBE6
S11304B0812F0E94EB01AE014F5F5F4F66EB812FEE
S11304C00E94EB0189819A8190935F0180935E0180
S11304D0AE014F5F5F4F68EB812F0E94EB01898172
S11304E09A8190935D0180935C01AE014F5F5F4FF1
S11304F06AEB812F0E94EB01AE014F5F5F4F6CEB03
S1130500812F0E94EB0189819A8190935B018093F2
S11305105A01AE014F5F5F4F6EEB812F0E94EB01DA
S113052089819A81909359018093580180E00F90BA
S11305300F90DF91CF911F9108950F931F93CF9345
S1130540C82F8B014EE264EF0E946E018FE19EE49E
S11305500197F1F700C00000A80166EF8C2F0E94FC
S1130560EB0180E0CF911F910F910895CF92DF921C
S1130570EF92FF920F931F93CF93DF9300D0CDB7E9
S1130580DEB78B011A821982BE016F5F7F4F0E9412
S11305909D0229813A8150E040E080916001909170
S11305A06101281B390B41095109A0916201B091E5
S11305B063010E949F056B017C018FE0F594E79431
S11305C0D794C7948A95D1F760915A0170915B01D1
S11305D0072E000C880B990B2BE0660F771F881FE2
S11305E0991F2A95D1F72091580130915901032E72
S11305F0000C440B550B2C0D3D1D4E1D5F1D0E9420
S11306008005DA01C9018C0D9D1DAE1DBF1D089624
S1130610A11DB11D34E0B595A795979587953A9599
S1130620D1F7F8019183808380E00F900F90DF91E0
S1130630CF911F910F91FF90EF90DF90CF9008958D
S1130640FF920F931F93CF93DF9300D01F92CDB7E8
S1130650DEB7F82E8B0144E364EF0E946E018FE154
S11306609EE40197F1F700C00000AE014F5F5F4FB9
S113067066EF8F2D0E94EB0189819A81B0E0A0E0A2
S1130680F80180839183A283B383AE014D5F5F4FF2
S113069068EF8F2D0E94C501F80180819181A281AC
S11306A0B381BA2FA92F982F8827892F9A2FAB2F80
S11306B0BB2780839183A283B38380E00F900F9044
S11306C00F90DF91CF911F910F91FF9008954F925A
S11306D05F926F927F928F929F92AF92BF92CF92CE
S11306E0DF92EF92FF920F931F93CF93DF9300D08B
S11306F000D000D0CDB7DEB7B82E8B011E821D828C
S1130700BE016B5F7F4F0E949D02CD80DE80F12C85
S1130710E12C19821A821B821C82BE016F5F7F4FFB
S11307208B2D0E9420038091600190916101A701AB
S11307309601281B390B41095109A0916201B0911E
S113074063010E949F054B015C01AFE0B594A7943F
S113075097948794AA95D1F760915A0170915B019F
S1130760072E000C880B990BBBE0660F771F881FC0
S1130770991FBA95D1F72091580130915901032E50
S1130780000C440B550B280D391D4A1D5B1D0E949E
S11307908005820E931EA41EB51E80EA881A8FE07F
S11307A0980AA108B108A5019401C501B4010E94E9
S11307B03A052B013C018CE0759467945794479457
S11307C08A95D1F7A0916601B09167010E94AA05AC
S11307D06B017C019DE0F594E794D794C7949A95B6
S11307E0D1F7A0915E01B0915F01A30192010E9433
S11307F0AA059C01552737FD5095452F2C0D3D1D0D
S11308004E1D5F1D2E5F3F4F4F4F5F4F62E055956A
S11308104795379527956A95D1F730584F4F5F4FD5
S1130820A0916401B09165010E949F056B017C0158
S11308307FE0F694E794D794C7947A95D1F7A09182
S11308405C01B0915D01A30192010E94AA052B01F4
S11308503C01EBE07594679457944794EA95D1F77B
S1130860A0916801B0916901A50194010E94AA05B3
S1130870FBE09595879577956795FA95D1F7640D83
S1130880751D861D971D40906A0150906B01052CC3
S1130890000C66087708A2E0440C551C661C771C03
S11308A0AA95D1F7640D751D861D971D6E5F7F4F48
S11308B08F4F9F4F24E030E040E050E00E948005DD
S11308C089819A81AB81BC814C015D01821A930AB2
S11308D0A40AB50AA5019401A0E5B3EC0E949F0502
S11308E097FD5CC0660F771F881F991FA7019601AB
S11308F00E945E0569017A019927F7FC9A958F2D6C
S11309007E2D6D2D9B01AC010E943A059B01AC012B
S1130910AEEDBBE00E949F054B015C01A3E4B3EE86
S1130920A70196010E94AD059C01552737FD5095FE
S1130930452F4501BB2497FCB094AB2C280D391DE1
S11309404A1D5B1D2153314F4F4F5F4F74E0559546
S11309504795379527957A95D1F7C20ED31EE41E95
S1130960F51EF801C082D182E282F38280E02696ED
S11309700FB6F894DEBF0FBECDBFDF91CF911F91AC
S11309800F91FF90EF90DF90CF90BF90AF909F902A
S11309908F907F906F905F904F900895A70196017C
S11309A00E945E0569017A01CC0CDD1CEE1CFF1C63
S11309B0A3CFCF93DF9300D000D000D0CDB7DEB764
S11309C080E09BE40E9467000E948A0087E70E94FF
S11309D01C021E821D8219821A821B821C828EE0D6
S11309E091E00E94EB058AE0C82ED12C91E2E92E19
S11309F091E0F92E28EE822E23E0922EA12CB12C28
S1130A000DE311E0BE016B5F7F4F87E70E94B602E2
S1130A108D819E81B6010E944A059F938F937F9397
S1130A206F93FF92EF920E94D505BE016F5F7F4FD7
S1130A3087E70E94670369817A818B819C81A50184
S1130A4094010E9480057F936F933F932F931F938C
S1130A500F930E94D5052FEF83E294EF215080403D
S1130A609040E1F700C000000FB6F894DEBF0FBE5F
S1130A70CDBFC8CFDB018F939F930E949F05BF9189
S1130A80AF91A29F800D911DA39F900DB29F900DD9
S1130A901124089597FB072E16F4009407D077FDD0
S1130AA009D00E94B20507FC05D03EF490958195CB
S1130AB09F4F0895709561957F4F0895A1E21A2E76
S1130AC0AA1BBB1BFD010DC0AA1FBB1FEE1FFF1FEE
S1130AD0A217B307E407F50720F0A21BB30BE40B3E
S1130AE0F50B661F771F881F991F1A9469F7609585
S1130AF07095809590959B01AC01BD01CF0108953F
S1130B00052E97FB1EF400940E94970557FD07D00D
S1130B100E945E0507FC03D04EF40C949705509593
S1130B204095309521953F4F4F4F5F4F08959095D5
S1130B308095709561957F4F8F4F9F4F08950E94C8
S1130B40C605A59F900DB49F900DA49F800D911D87
S1130B5011240895B7FF0C949F050E949F05821BE2
S1130B60930B0895AA1BBB1B51E107C0AA1FBB1F0F
S1130B70A617B70710F0A61BB70B881F991F5A9525
S1130B80A9F780959095BC01CD010895A29FB0016D
S1130B90B39FC001A39F700D811D1124911DB29FAD
S1130BA0700D811D1124911D0895A0E0B0E0EBEDBE
S1130BB0F5E00C94A208AE014B5F5F4FFA0161911E
S1130BC07191AF0180916E0190916F010E941B069B
S1130BD0E2E00C94BE080F931F93CF93DF93E09150
S1130BE06E01F0916F01238121FF1BC08C01D0E0C5
S1130BF0C0E0F80181918F0160916E0170916F01E5
S1130C00DB011896ED91FC911997882331F0099531
S1130C10892B79F3DFEFCFEFECCF8AE00995892BAD
S1130C2019F08FEF9FEF02C08D2F9C2FDF91CF9192
S1130C301F910F910895ACE0B0E0E1E2F6E00C946E
S1130C4092086C017B018A01FC0117821682838160
S1130C5081FFBEC1CE0101964C01F6019381F701DB
S1130C6093FD859193FF81917F01882309F4ACC1A1
S1130C70853239F493FD859193FF81917F0185320B
S1130C8029F4B60190E00E940408E7CF512C312CDE
S1130C9020E02032A0F48B3269F030F4803259F035
S1130CA0833269F420612CC08D3239F0803339F4F9
S1130CB0216026C02260246023C0286021C027FD53
S1130CC027C030ED380F3A3078F426FF06C0FAE03A
S1130CD05F9E300D1124532E13C08AE0389E300DD0
S1130CE01124332E20620CC08E3221F426FD6CC1F7
S1130CF0206406C08C3611F4206802C0883641F4A2
S1130D00F70193FD859193FF81917F018111C1CFFB
S1130D10982F9F7D9554933028F40C5F1F4F9FE3C9
S1130D2099830DC0833631F0833771F0833509F030
S1130D305BC022C0F801808189830E5F1F4F442469
S1130D404394512C540115C03801F2E06F0E711C0C
S1130D50F801A080B18026FF03C0652D70E002C0B9
S1130D606FEF7FEFC5012C870E94F9072C018301E7
S1130D702C852F77222E17C03801F2E06F0E711CDC
S1130D80F801A080B18026FF03C0652D70E002C089
S1130D906FEF7FEFC5012C870E94EE072C012C8595
S1130DA02068222E830123FC1BC0832D90E048166B
S1130DB05906B0F4B60180E290E00E9404083A9427
S1130DC0F4CFF50127FC859127FE81915F01B601DF
S1130DD090E00E94040831103A94F1E04F1A51084F
S1130DE04114510471F7E6C0843611F0893639F59F
S1130DF0F80127FF07C060817181828193810C5FB4
S1130E001F4F08C060817181072E000C880B990B5D
S1130E100E5F1F4F2F76722E97FF09C09095809515
S1130E20709561957F4F8F4F9F4F2068722E2AE0F7
S1130E3030E0A4010E943408A82EA81844C08537C5
S1130E4029F42F7EB22E2AE030E025C0F22FF97F5C
S1130E50BF2E8F36C1F018F4883579F0B5C08037CD
S1130E6019F0883721F0B0C02F2F2061B22EB4FEC4
S1130E700DC08B2D8460B82E09C024FF0AC09F2F9B
S1130E809660B92E06C028E030E005C020E130E0CD
S1130E9002C020E132E0F801B7FE07C06081718131
S1130EA0828193810C5F1F4F06C06081718180E055
S1130EB090E00E5F1F4FA4010E943408A82EA818CA
S1130EC0FB2DFF777F2E76FE0BC0372D3E7FA514BA
S1130ED050F474FE0AC072FC08C0372D3E7E05C073
S1130EE0BA2C372D03C0BA2C01C0B52C34FF0DC069
S1130EF0FE01EA0DF11D8081803311F4397E09C0B1
S1130F0032FF06C0B394B39404C0832F867809F0EB
S1130F10B39433FD13C030FF06C0B31498F43A0CF5
S1130F20532C5B1810C0B31470F4B60180E290E047
S1130F303C870E940408B3943C85F5CFB31418F49D
S1130F403B1802C05A2C312C34FF12C0B60180E386
S1130F5090E03C870E9404083C8532FF17C031FDB5
S1130F6003C088E790E002C088E590E0B6010CC0B9
S1130F70832F867859F031FF02C08BE201C080E2F2
S1130F8037FD8DE2B60190E00E940408A51438F400
S1130F90B60180E390E00E9404085A94F7CFAA9423
S1130FA0F401EA0DF11D8081B60190E00E9404086D
S1130FB0A110F5CF332009F450CEB60180E290E0C1
S1130FC00E9404083A94F6CFF6018681978102C004
S1130FD08FEF9FEF2C96E2E10C94AE08FC01059094
S1130FE0615070400110D8F7809590958E0F9F1F27
S1130FF00895FC016150704001900110D8F780956C
S113100090958E0F9F1F08950F931F93CF93DF9397
S1131010182F092FEB018B8181FD03C08FEF9FEF08
S11310201EC082FF0FC02E813F818C819D812817B5
S1131030390774F4E881F981CF0101969983888393
S1131040108306C0E885F985812F0995892B31F72E
S11310508E819F8101969F838E83812F902FDF91B4
S1131060CF911F910F910895FA01AA27283051F1C9
S1131070203181F1E8946F936E7F6E5F7F4F8F4FC5
S11310809F4FAF4FB1E03ED0B4E03CD0670F781F24
S1131090891F9A1FA11D680F791F8A1F911DA11D09
S11310A06A0F711D811D911DA11D20D009F4689442
S11310B03F912AE0269F11243019305D3193DEF6EA
S11310C0CF010895462F4770405D4193B3E00FD0A0
S11310D0C9F7F6CF462F4F70405D4A3318F0495D8B
S11310E031FD4052419302D0A9F7EACFB4E0A6956E
S11310F09795879577956795BA95C9F70097610590
S1131100710508959B01AC010A2E069457954795E5
S113111037952795BA95C9F7620F731F841F951FDA
S1131120A01D08952F923F924F925F926F927F92EB
S11311308F929F92AF92BF92CF92DF92EF92FF92E3
S11311400F931F93CF93DF93CDB7DEB7CA1BDB0B8F
S11311500FB6F894DEBF0FBECDBF09942A88398834
S113116048885F846E847D848C849B84AA84B9843B
S1131170C884DF80EE80FD800C811B81AA81B98147
S1131180CE0FD11D0FB6F894DEBF0FBECDBFED015B
S10911900895F894FFCF5E
S113119600000003000000005300640000005365D3
S11311A66E736F722C56616C75652C556E6974730B
S11311B600424D503138305F54656D70657261740C
S11311C67572652C25642E25642C630A00424D50E5
S11311D63138305F50726573737572652C25642ED1
S10B11E625642C6B50610A0022
S9030000FC
